{
  "_format": "hh-sol-artifact-1",
  "contractName": "Vault",
  "sourceName": "contracts/Vault.sol",
  "abi": [
    {
      "inputs": [],
      "stateMutability": "nonpayable",
      "type": "constructor"
    },
    {
      "anonymous": false,
      "inputs": [
        {
          "indexed": true,
          "internalType": "address",
          "name": "previousOwner",
          "type": "address"
        },
        {
          "indexed": true,
          "internalType": "address",
          "name": "newOwner",
          "type": "address"
        }
      ],
      "name": "OwnershipTransferred",
      "type": "event"
    },
    {
      "anonymous": false,
      "inputs": [
        {
          "indexed": true,
          "internalType": "bytes32",
          "name": "role",
          "type": "bytes32"
        },
        {
          "indexed": true,
          "internalType": "bytes32",
          "name": "previousAdminRole",
          "type": "bytes32"
        },
        {
          "indexed": true,
          "internalType": "bytes32",
          "name": "newAdminRole",
          "type": "bytes32"
        }
      ],
      "name": "RoleAdminChanged",
      "type": "event"
    },
    {
      "anonymous": false,
      "inputs": [
        {
          "indexed": true,
          "internalType": "bytes32",
          "name": "role",
          "type": "bytes32"
        },
        {
          "indexed": true,
          "internalType": "address",
          "name": "account",
          "type": "address"
        },
        {
          "indexed": true,
          "internalType": "address",
          "name": "sender",
          "type": "address"
        }
      ],
      "name": "RoleGranted",
      "type": "event"
    },
    {
      "anonymous": false,
      "inputs": [
        {
          "indexed": true,
          "internalType": "bytes32",
          "name": "role",
          "type": "bytes32"
        },
        {
          "indexed": true,
          "internalType": "address",
          "name": "account",
          "type": "address"
        },
        {
          "indexed": true,
          "internalType": "address",
          "name": "sender",
          "type": "address"
        }
      ],
      "name": "RoleRevoked",
      "type": "event"
    },
    {
      "inputs": [],
      "name": "DEFAULT_ADMIN_ROLE",
      "outputs": [
        {
          "internalType": "bytes32",
          "name": "",
          "type": "bytes32"
        }
      ],
      "stateMutability": "view",
      "type": "function"
    },
    {
      "inputs": [],
      "name": "WITHDRAWER_ROLE",
      "outputs": [
        {
          "internalType": "bytes32",
          "name": "",
          "type": "bytes32"
        }
      ],
      "stateMutability": "view",
      "type": "function"
    },
    {
      "inputs": [
        {
          "internalType": "uint256",
          "name": "_amount",
          "type": "uint256"
        }
      ],
      "name": "deposit",
      "outputs": [],
      "stateMutability": "nonpayable",
      "type": "function"
    },
    {
      "inputs": [
        {
          "internalType": "bytes32",
          "name": "role",
          "type": "bytes32"
        }
      ],
      "name": "getRoleAdmin",
      "outputs": [
        {
          "internalType": "bytes32",
          "name": "",
          "type": "bytes32"
        }
      ],
      "stateMutability": "view",
      "type": "function"
    },
    {
      "inputs": [
        {
          "internalType": "bytes32",
          "name": "role",
          "type": "bytes32"
        },
        {
          "internalType": "uint256",
          "name": "index",
          "type": "uint256"
        }
      ],
      "name": "getRoleMember",
      "outputs": [
        {
          "internalType": "address",
          "name": "",
          "type": "address"
        }
      ],
      "stateMutability": "view",
      "type": "function"
    },
    {
      "inputs": [
        {
          "internalType": "bytes32",
          "name": "role",
          "type": "bytes32"
        }
      ],
      "name": "getRoleMemberCount",
      "outputs": [
        {
          "internalType": "uint256",
          "name": "",
          "type": "uint256"
        }
      ],
      "stateMutability": "view",
      "type": "function"
    },
    {
      "inputs": [
        {
          "internalType": "bytes32",
          "name": "role",
          "type": "bytes32"
        },
        {
          "internalType": "address",
          "name": "account",
          "type": "address"
        }
      ],
      "name": "grantRole",
      "outputs": [],
      "stateMutability": "nonpayable",
      "type": "function"
    },
    {
      "inputs": [
        {
          "internalType": "bytes32",
          "name": "role",
          "type": "bytes32"
        },
        {
          "internalType": "address",
          "name": "account",
          "type": "address"
        }
      ],
      "name": "hasRole",
      "outputs": [
        {
          "internalType": "bool",
          "name": "",
          "type": "bool"
        }
      ],
      "stateMutability": "view",
      "type": "function"
    },
    {
      "inputs": [],
      "name": "maxWithdrawAmount",
      "outputs": [
        {
          "internalType": "uint256",
          "name": "",
          "type": "uint256"
        }
      ],
      "stateMutability": "view",
      "type": "function"
    },
    {
      "inputs": [],
      "name": "owner",
      "outputs": [
        {
          "internalType": "address",
          "name": "",
          "type": "address"
        }
      ],
      "stateMutability": "view",
      "type": "function"
    },
    {
      "inputs": [],
      "name": "renounceOwnership",
      "outputs": [],
      "stateMutability": "nonpayable",
      "type": "function"
    },
    {
      "inputs": [
        {
          "internalType": "bytes32",
          "name": "role",
          "type": "bytes32"
        },
        {
          "internalType": "address",
          "name": "account",
          "type": "address"
        }
      ],
      "name": "renounceRole",
      "outputs": [],
      "stateMutability": "nonpayable",
      "type": "function"
    },
    {
      "inputs": [
        {
          "internalType": "bytes32",
          "name": "role",
          "type": "bytes32"
        },
        {
          "internalType": "address",
          "name": "account",
          "type": "address"
        }
      ],
      "name": "revokeRole",
      "outputs": [],
      "stateMutability": "nonpayable",
      "type": "function"
    },
    {
      "inputs": [
        {
          "internalType": "uint256",
          "name": "_maxAmount",
          "type": "uint256"
        }
      ],
      "name": "setMaxWithdrawAmount",
      "outputs": [],
      "stateMutability": "nonpayable",
      "type": "function"
    },
    {
      "inputs": [
        {
          "internalType": "contract IERC20",
          "name": "_token",
          "type": "address"
        }
      ],
      "name": "setToken",
      "outputs": [],
      "stateMutability": "nonpayable",
      "type": "function"
    },
    {
      "inputs": [
        {
          "internalType": "bool",
          "name": "_isEnable",
          "type": "bool"
        }
      ],
      "name": "setWithdrawEnable",
      "outputs": [],
      "stateMutability": "nonpayable",
      "type": "function"
    },
    {
      "inputs": [
        {
          "internalType": "bytes4",
          "name": "interfaceId",
          "type": "bytes4"
        }
      ],
      "name": "supportsInterface",
      "outputs": [
        {
          "internalType": "bool",
          "name": "",
          "type": "bool"
        }
      ],
      "stateMutability": "view",
      "type": "function"
    },
    {
      "inputs": [
        {
          "internalType": "address",
          "name": "newOwner",
          "type": "address"
        }
      ],
      "name": "transferOwnership",
      "outputs": [],
      "stateMutability": "nonpayable",
      "type": "function"
    },
    {
      "inputs": [
        {
          "internalType": "uint256",
          "name": "_amount",
          "type": "uint256"
        },
        {
          "internalType": "address",
          "name": "_to",
          "type": "address"
        }
      ],
      "name": "withdraw",
      "outputs": [],
      "stateMutability": "nonpayable",
      "type": "function"
    },
    {
      "inputs": [],
      "name": "withdrawEnable",
      "outputs": [
        {
          "internalType": "bool",
          "name": "",
          "type": "bool"
        }
      ],
      "stateMutability": "view",
      "type": "function"
    }
  ],
  "bytecode": "0x60806040523480156200001157600080fd5b5062000032620000266200005c60201b60201c565b6200006460201b60201c565b620000566000801b6200004a6200005c60201b60201c565b6200012860201b60201c565b620003b7565b600033905090565b60008060009054906101000a900473ffffffffffffffffffffffffffffffffffffffff169050816000806101000a81548173ffffffffffffffffffffffffffffffffffffffff021916908373ffffffffffffffffffffffffffffffffffffffff1602179055508173ffffffffffffffffffffffffffffffffffffffff168173ffffffffffffffffffffffffffffffffffffffff167f8be0079c531659141344cd1fd0a4f28419497f9722a3daafe3b4186f6b6457e060405160405180910390a35050565b6200013a82826200013e60201b60201c565b5050565b6200015582826200018660201b62000a7b1760201c565b6200018181600260008581526020019081526020016000206200027760201b62000b5b1790919060201c565b505050565b620001988282620002af60201b60201c565b6200027357600180600084815260200190815260200160002060000160008373ffffffffffffffffffffffffffffffffffffffff1673ffffffffffffffffffffffffffffffffffffffff16815260200190815260200160002060006101000a81548160ff021916908315150217905550620002186200005c60201b60201c565b73ffffffffffffffffffffffffffffffffffffffff168173ffffffffffffffffffffffffffffffffffffffff16837f2f8788117e7eff1d82e926ec794901d17c78024a50270940304540a733656f0d60405160405180910390a45b5050565b6000620002a7836000018373ffffffffffffffffffffffffffffffffffffffff1660001b6200031a60201b60201c565b905092915050565b60006001600084815260200190815260200160002060000160008373ffffffffffffffffffffffffffffffffffffffff1673ffffffffffffffffffffffffffffffffffffffff16815260200190815260200160002060009054906101000a900460ff16905092915050565b60006200032e83836200039460201b60201c565b620003895782600001829080600181540180825580915050600190039060005260206000200160009091909190915055826000018054905083600101600084815260200190815260200160002081905550600190506200038e565b600090505b92915050565b600080836001016000848152602001908152602001600020541415905092915050565b61259280620003c76000396000f3fe608060405234801561001057600080fd5b506004361061012b5760003560e01c80639010d07c116100ad578063ca15c87311610071578063ca15c8731461031a578063d547741f1461034a578063df74e02814610366578063f2fde38b14610382578063f516440c1461039e5761012b565b80639010d07c1461026257806391d1485414610292578063a217fddf146102c2578063b5b68afe146102e0578063b6b55f25146102fe5761012b565b806336568abe116100f457806336568abe146101e4578063715018a614610200578063827a560b1461020a57806385f438c1146102265780638da5cb5b146102445761012b565b8062f714ce1461013057806301ffc9a71461014c578063144fa6d71461017c578063248a9ca3146101985780632f2ff15d146101c8575b600080fd5b61014a600480360381019061014591906117d1565b6103bc565b005b61016660048036038101906101619190611869565b6105b8565b60405161017391906118b1565b60405180910390f35b6101966004803603810190610191919061190a565b610632565b005b6101b260048036038101906101ad919061196d565b61067e565b6040516101bf91906119a9565b60405180910390f35b6101e260048036038101906101dd91906119c4565b61069e565b005b6101fe60048036038101906101f991906119c4565b6106bf565b005b610208610742565b005b610224600480360381019061021f9190611a30565b610756565b005b61022e61077b565b60405161023b91906119a9565b60405180910390f35b61024c61079f565b6040516102599190611a6c565b60405180910390f35b61027c60048036038101906102779190611a87565b6107c8565b6040516102899190611a6c565b60405180910390f35b6102ac60048036038101906102a791906119c4565b6107f7565b6040516102b991906118b1565b60405180910390f35b6102ca610862565b6040516102d791906119a9565b60405180910390f35b6102e8610869565b6040516102f591906118b1565b60405180910390f35b61031860048036038101906103139190611ac7565b61087c565b005b610334600480360381019061032f919061196d565b61099a565b6040516103419190611b03565b60405180910390f35b610364600480360381019061035f91906119c4565b6109be565b005b610380600480360381019061037b9190611ac7565b6109df565b005b61039c60048036038101906103979190611b1e565b6109f1565b005b6103a6610a75565b6040516103b39190611b03565b60405180910390f35b6103c4610b8b565b73ffffffffffffffffffffffffffffffffffffffff166103e261079f565b73ffffffffffffffffffffffffffffffffffffffff16148061043157506104307f10dac8c06a04bec0b551627dad28bc00d6516b0caacd1c7b345fcdb5211334e461042b610b8b565b6107f7565b5b610470576040517f08c379a000000000000000000000000000000000000000000000000000000000815260040161046790611ba8565b60405180910390fd5b600560009054906101000a900460ff166104bf576040517f08c379a00000000000000000000000000000000000000000000000000000000081526004016104b690611c14565b60405180910390fd5b600454821115610504576040517f08c379a00000000000000000000000000000000000000000000000000000000081526004016104fb90611c80565b60405180910390fd5b600360009054906101000a900473ffffffffffffffffffffffffffffffffffffffff1673ffffffffffffffffffffffffffffffffffffffff1663a9059cbb82846040518363ffffffff1660e01b8152600401610561929190611ca0565b602060405180830381600087803b15801561057b57600080fd5b505af115801561058f573d6000803e3d6000fd5b505050506040513d601f19601f820116820180604052508101906105b39190611cde565b505050565b60007f5a05180f000000000000000000000000000000000000000000000000000000007bffffffffffffffffffffffffffffffffffffffffffffffffffffffff1916827bffffffffffffffffffffffffffffffffffffffffffffffffffffffff1916148061062b575061062a82610b93565b5b9050919050565b61063a610c0d565b80600360006101000a81548173ffffffffffffffffffffffffffffffffffffffff021916908373ffffffffffffffffffffffffffffffffffffffff16021790555050565b600060016000838152602001908152602001600020600101549050919050565b6106a78261067e565b6106b081610c8b565b6106ba8383610c9f565b505050565b6106c7610b8b565b73ffffffffffffffffffffffffffffffffffffffff168173ffffffffffffffffffffffffffffffffffffffff1614610734576040517f08c379a000000000000000000000000000000000000000000000000000000000815260040161072b90611d7d565b60405180910390fd5b61073e8282610cd3565b5050565b61074a610c0d565b6107546000610d07565b565b61075e610c0d565b80600560006101000a81548160ff02191690831515021790555050565b7f10dac8c06a04bec0b551627dad28bc00d6516b0caacd1c7b345fcdb5211334e481565b60008060009054906101000a900473ffffffffffffffffffffffffffffffffffffffff16905090565b60006107ef8260026000868152602001908152602001600020610dcb90919063ffffffff16565b905092915050565b60006001600084815260200190815260200160002060000160008373ffffffffffffffffffffffffffffffffffffffff1673ffffffffffffffffffffffffffffffffffffffff16815260200190815260200160002060009054906101000a900460ff16905092915050565b6000801b81565b600560009054906101000a900460ff1681565b80600360009054906101000a900473ffffffffffffffffffffffffffffffffffffffff1673ffffffffffffffffffffffffffffffffffffffff166370a08231336040518263ffffffff1660e01b81526004016108d89190611a6c565b60206040518083038186803b1580156108f057600080fd5b505afa158015610904573d6000803e3d6000fd5b505050506040513d601f19601f820116820180604052508101906109289190611db2565b1015610969576040517f08c379a000000000000000000000000000000000000000000000000000000000815260040161096090611e2b565b60405180910390fd5b610997600360009054906101000a900473ffffffffffffffffffffffffffffffffffffffff16333084610de5565b50565b60006109b760026000848152602001908152602001600020610e6e565b9050919050565b6109c78261067e565b6109d081610c8b565b6109da8383610cd3565b505050565b6109e7610c0d565b8060048190555050565b6109f9610c0d565b600073ffffffffffffffffffffffffffffffffffffffff168173ffffffffffffffffffffffffffffffffffffffff161415610a69576040517f08c379a0000000000000000000000000000000000000000000000000000000008152600401610a6090611ebd565b60405180910390fd5b610a7281610d07565b50565b60045481565b610a8582826107f7565b610b5757600180600084815260200190815260200160002060000160008373ffffffffffffffffffffffffffffffffffffffff1673ffffffffffffffffffffffffffffffffffffffff16815260200190815260200160002060006101000a81548160ff021916908315150217905550610afc610b8b565b73ffffffffffffffffffffffffffffffffffffffff168173ffffffffffffffffffffffffffffffffffffffff16837f2f8788117e7eff1d82e926ec794901d17c78024a50270940304540a733656f0d60405160405180910390a45b5050565b6000610b83836000018373ffffffffffffffffffffffffffffffffffffffff1660001b610e83565b905092915050565b600033905090565b60007f7965db0b000000000000000000000000000000000000000000000000000000007bffffffffffffffffffffffffffffffffffffffffffffffffffffffff1916827bffffffffffffffffffffffffffffffffffffffffffffffffffffffff19161480610c065750610c0582610ef3565b5b9050919050565b610c15610b8b565b73ffffffffffffffffffffffffffffffffffffffff16610c3361079f565b73ffffffffffffffffffffffffffffffffffffffff1614610c89576040517f08c379a0000000000000000000000000000000000000000000000000000000008152600401610c8090611f29565b60405180910390fd5b565b610c9c81610c97610b8b565b610f5d565b50565b610ca98282610a7b565b610cce8160026000858152602001908152602001600020610b5b90919063ffffffff16565b505050565b610cdd8282610ffa565b610d0281600260008581526020019081526020016000206110dc90919063ffffffff16565b505050565b60008060009054906101000a900473ffffffffffffffffffffffffffffffffffffffff169050816000806101000a81548173ffffffffffffffffffffffffffffffffffffffff021916908373ffffffffffffffffffffffffffffffffffffffff1602179055508173ffffffffffffffffffffffffffffffffffffffff168173ffffffffffffffffffffffffffffffffffffffff167f8be0079c531659141344cd1fd0a4f28419497f9722a3daafe3b4186f6b6457e060405160405180910390a35050565b6000610dda836000018361110c565b60001c905092915050565b610e68846323b872dd60e01b858585604051602401610e0693929190611f49565b604051602081830303815290604052907bffffffffffffffffffffffffffffffffffffffffffffffffffffffff19166020820180517bffffffffffffffffffffffffffffffffffffffffffffffffffffffff8381831617835250505050611137565b50505050565b6000610e7c826000016111fe565b9050919050565b6000610e8f838361120f565b610ee8578260000182908060018154018082558091505060019003906000526020600020016000909190919091505582600001805490508360010160008481526020019081526020016000208190555060019050610eed565b600090505b92915050565b60007f01ffc9a7000000000000000000000000000000000000000000000000000000007bffffffffffffffffffffffffffffffffffffffffffffffffffffffff1916827bffffffffffffffffffffffffffffffffffffffffffffffffffffffff1916149050919050565b610f6782826107f7565b610ff657610f8c8173ffffffffffffffffffffffffffffffffffffffff166014611232565b610f9a8360001c6020611232565b604051602001610fab929190612092565b6040516020818303038152906040526040517f08c379a0000000000000000000000000000000000000000000000000000000008152600401610fed9190612116565b60405180910390fd5b5050565b61100482826107f7565b156110d85760006001600084815260200190815260200160002060000160008373ffffffffffffffffffffffffffffffffffffffff1673ffffffffffffffffffffffffffffffffffffffff16815260200190815260200160002060006101000a81548160ff02191690831515021790555061107d610b8b565b73ffffffffffffffffffffffffffffffffffffffff168173ffffffffffffffffffffffffffffffffffffffff16837ff6391f5c32d9c69d2a47ea670b442974b53935d1edc7fd64eb21e047a839171b60405160405180910390a45b5050565b6000611104836000018373ffffffffffffffffffffffffffffffffffffffff1660001b61146e565b905092915050565b600082600001828154811061112457611123612138565b5b9060005260206000200154905092915050565b6000611199826040518060400160405280602081526020017f5361666545524332303a206c6f772d6c6576656c2063616c6c206661696c65648152508573ffffffffffffffffffffffffffffffffffffffff166115829092919063ffffffff16565b90506000815111156111f957808060200190518101906111b99190611cde565b6111f8576040517f08c379a00000000000000000000000000000000000000000000000000000000081526004016111ef906121d9565b60405180910390fd5b5b505050565b600081600001805490509050919050565b600080836001016000848152602001908152602001600020541415905092915050565b6060600060028360026112459190612228565b61124f9190612282565b67ffffffffffffffff811115611268576112676122d8565b5b6040519080825280601f01601f19166020018201604052801561129a5781602001600182028036833780820191505090505b5090507f3000000000000000000000000000000000000000000000000000000000000000816000815181106112d2576112d1612138565b5b60200101907effffffffffffffffffffffffffffffffffffffffffffffffffffffffffffff1916908160001a9053507f78000000000000000000000000000000000000000000000000000000000000008160018151811061133657611335612138565b5b60200101907effffffffffffffffffffffffffffffffffffffffffffffffffffffffffffff1916908160001a905350600060018460026113769190612228565b6113809190612282565b90505b6001811115611420577f3031323334353637383961626364656600000000000000000000000000000000600f8616601081106113c2576113c1612138565b5b1a60f81b8282815181106113d9576113d8612138565b5b60200101907effffffffffffffffffffffffffffffffffffffffffffffffffffffffffffff1916908160001a905350600485901c94508061141990612307565b9050611383565b5060008414611464576040517f08c379a000000000000000000000000000000000000000000000000000000000815260040161145b9061237d565b60405180910390fd5b8091505092915050565b600080836001016000848152602001908152602001600020549050600081146115765760006001826114a0919061239d565b90506000600186600001805490506114b8919061239d565b90508181146115275760008660000182815481106114d9576114d8612138565b5b90600052602060002001549050808760000184815481106114fd576114fc612138565b5b90600052602060002001819055508387600101600083815260200190815260200160002081905550505b8560000180548061153b5761153a6123d1565b5b60019003818190600052602060002001600090559055856001016000868152602001908152602001600020600090556001935050505061157c565b60009150505b92915050565b6060611591848460008561159a565b90509392505050565b6060824710156115df576040517f08c379a00000000000000000000000000000000000000000000000000000000081526004016115d690612472565b60405180910390fd5b6115e8856116ae565b611627576040517f08c379a000000000000000000000000000000000000000000000000000000000815260040161161e906124de565b60405180910390fd5b6000808673ffffffffffffffffffffffffffffffffffffffff1685876040516116509190612545565b60006040518083038185875af1925050503d806000811461168d576040519150601f19603f3d011682016040523d82523d6000602084013e611692565b606091505b50915091506116a28282866116d1565b92505050949350505050565b6000808273ffffffffffffffffffffffffffffffffffffffff163b119050919050565b606083156116e157829050611731565b6000835111156116f45782518084602001fd5b816040517f08c379a00000000000000000000000000000000000000000000000000000000081526004016117289190612116565b60405180910390fd5b9392505050565b600080fd5b6000819050919050565b6117508161173d565b811461175b57600080fd5b50565b60008135905061176d81611747565b92915050565b600073ffffffffffffffffffffffffffffffffffffffff82169050919050565b600061179e82611773565b9050919050565b6117ae81611793565b81146117b957600080fd5b50565b6000813590506117cb816117a5565b92915050565b600080604083850312156117e8576117e7611738565b5b60006117f68582860161175e565b9250506020611807858286016117bc565b9150509250929050565b60007fffffffff0000000000000000000000000000000000000000000000000000000082169050919050565b61184681611811565b811461185157600080fd5b50565b6000813590506118638161183d565b92915050565b60006020828403121561187f5761187e611738565b5b600061188d84828501611854565b91505092915050565b60008115159050919050565b6118ab81611896565b82525050565b60006020820190506118c660008301846118a2565b92915050565b60006118d782611793565b9050919050565b6118e7816118cc565b81146118f257600080fd5b50565b600081359050611904816118de565b92915050565b6000602082840312156119205761191f611738565b5b600061192e848285016118f5565b91505092915050565b6000819050919050565b61194a81611937565b811461195557600080fd5b50565b60008135905061196781611941565b92915050565b60006020828403121561198357611982611738565b5b600061199184828501611958565b91505092915050565b6119a381611937565b82525050565b60006020820190506119be600083018461199a565b92915050565b600080604083850312156119db576119da611738565b5b60006119e985828601611958565b92505060206119fa858286016117bc565b9150509250929050565b611a0d81611896565b8114611a1857600080fd5b50565b600081359050611a2a81611a04565b92915050565b600060208284031215611a4657611a45611738565b5b6000611a5484828501611a1b565b91505092915050565b611a6681611793565b82525050565b6000602082019050611a816000830184611a5d565b92915050565b60008060408385031215611a9e57611a9d611738565b5b6000611aac85828601611958565b9250506020611abd8582860161175e565b9150509250929050565b600060208284031215611add57611adc611738565b5b6000611aeb8482850161175e565b91505092915050565b611afd8161173d565b82525050565b6000602082019050611b186000830184611af4565b92915050565b600060208284031215611b3457611b33611738565b5b6000611b42848285016117bc565b91505092915050565b600082825260208201905092915050565b7f43616c6c6572206973206e6f7420612077697468647261776572000000000000600082015250565b6000611b92601a83611b4b565b9150611b9d82611b5c565b602082019050919050565b60006020820190508181036000830152611bc181611b85565b9050919050565b7f5769746864726177206973206e6f7420617661696c61626c6500000000000000600082015250565b6000611bfe601983611b4b565b9150611c0982611bc8565b602082019050919050565b60006020820190508181036000830152611c2d81611bf1565b9050919050565b7f457863656564206d6178696d756d20616d6f756e740000000000000000000000600082015250565b6000611c6a601583611b4b565b9150611c7582611c34565b602082019050919050565b60006020820190508181036000830152611c9981611c5d565b9050919050565b6000604082019050611cb56000830185611a5d565b611cc26020830184611af4565b9392505050565b600081519050611cd881611a04565b92915050565b600060208284031215611cf457611cf3611738565b5b6000611d0284828501611cc9565b91505092915050565b7f416363657373436f6e74726f6c3a2063616e206f6e6c792072656e6f756e636560008201527f20726f6c657320666f722073656c660000000000000000000000000000000000602082015250565b6000611d67602f83611b4b565b9150611d7282611d0b565b604082019050919050565b60006020820190508181036000830152611d9681611d5a565b9050919050565b600081519050611dac81611747565b92915050565b600060208284031215611dc857611dc7611738565b5b6000611dd684828501611d9d565b91505092915050565b7f496e73756666696369656e74206163636f756e742062616c616e636500000000600082015250565b6000611e15601c83611b4b565b9150611e2082611ddf565b602082019050919050565b60006020820190508181036000830152611e4481611e08565b9050919050565b7f4f776e61626c653a206e6577206f776e657220697320746865207a65726f206160008201527f6464726573730000000000000000000000000000000000000000000000000000602082015250565b6000611ea7602683611b4b565b9150611eb282611e4b565b604082019050919050565b60006020820190508181036000830152611ed681611e9a565b9050919050565b7f4f776e61626c653a2063616c6c6572206973206e6f7420746865206f776e6572600082015250565b6000611f13602083611b4b565b9150611f1e82611edd565b602082019050919050565b60006020820190508181036000830152611f4281611f06565b9050919050565b6000606082019050611f5e6000830186611a5d565b611f6b6020830185611a5d565b611f786040830184611af4565b949350505050565b600081905092915050565b7f416363657373436f6e74726f6c3a206163636f756e7420000000000000000000600082015250565b6000611fc1601783611f80565b9150611fcc82611f8b565b601782019050919050565b600081519050919050565b60005b83811015612000578082015181840152602081019050611fe5565b8381111561200f576000848401525b50505050565b600061202082611fd7565b61202a8185611f80565b935061203a818560208601611fe2565b80840191505092915050565b7f206973206d697373696e6720726f6c6520000000000000000000000000000000600082015250565b600061207c601183611f80565b915061208782612046565b601182019050919050565b600061209d82611fb4565b91506120a98285612015565b91506120b48261206f565b91506120c08284612015565b91508190509392505050565b6000601f19601f8301169050919050565b60006120e882611fd7565b6120f28185611b4b565b9350612102818560208601611fe2565b61210b816120cc565b840191505092915050565b6000602082019050818103600083015261213081846120dd565b905092915050565b7f4e487b7100000000000000000000000000000000000000000000000000000000600052603260045260246000fd5b7f5361666545524332303a204552433230206f7065726174696f6e20646964206e60008201527f6f74207375636365656400000000000000000000000000000000000000000000602082015250565b60006121c3602a83611b4b565b91506121ce82612167565b604082019050919050565b600060208201905081810360008301526121f2816121b6565b9050919050565b7f4e487b7100000000000000000000000000000000000000000000000000000000600052601160045260246000fd5b60006122338261173d565b915061223e8361173d565b9250817fffffffffffffffffffffffffffffffffffffffffffffffffffffffffffffffff0483118215151615612277576122766121f9565b5b828202905092915050565b600061228d8261173d565b91506122988361173d565b9250827fffffffffffffffffffffffffffffffffffffffffffffffffffffffffffffffff038211156122cd576122cc6121f9565b5b828201905092915050565b7f4e487b7100000000000000000000000000000000000000000000000000000000600052604160045260246000fd5b60006123128261173d565b91506000821415612326576123256121f9565b5b600182039050919050565b7f537472696e67733a20686578206c656e67746820696e73756666696369656e74600082015250565b6000612367602083611b4b565b915061237282612331565b602082019050919050565b600060208201905081810360008301526123968161235a565b9050919050565b60006123a88261173d565b91506123b38361173d565b9250828210156123c6576123c56121f9565b5b828203905092915050565b7f4e487b7100000000000000000000000000000000000000000000000000000000600052603160045260246000fd5b7f416464726573733a20696e73756666696369656e742062616c616e636520666f60008201527f722063616c6c0000000000000000000000000000000000000000000000000000602082015250565b600061245c602683611b4b565b915061246782612400565b604082019050919050565b6000602082019050818103600083015261248b8161244f565b9050919050565b7f416464726573733a2063616c6c20746f206e6f6e2d636f6e7472616374000000600082015250565b60006124c8601d83611b4b565b91506124d382612492565b602082019050919050565b600060208201905081810360008301526124f7816124bb565b9050919050565b600081519050919050565b600081905092915050565b600061251f826124fe565b6125298185612509565b9350612539818560208601611fe2565b80840191505092915050565b60006125518284612514565b91508190509291505056fea2646970667358221220a289b229704933c9d1c916e5ad366f2259a1e93a876197818e18bcfb5c9db19b64736f6c63430008090033",
  "linkReferences": {},
  "deployedLinkReferences": {}
}